VOSZAGDEU01234567       122345556       20200911006542Quick-Lohn Meldecenter                            01
DSKODEUEV01234567       122345556       04202009110700030000000012345678       12345678923456000Quick-Lohn Meldecenter                                                                    12345     Berlin                            Schönste Straße Deutschlands          32       MAny Body Test           123456789012        123456789012        mail@example.oth.de                                                  
DSMEDEUEV01234567       122345556       052020091107000300000000212345678234  81142233       basdfbasdfbbasdbf    87654321                                          12340000JJNJNNNNNN 1 N N  N 00000000000000000000  12345678901234516e869d4a4db49999941f4e78db4bfb101234567                                                                                            N                                                                                                                                                                                                       DBMEN123456789012345678901234567890123456789WN0 000000                                                                                             DBNANachname von zu                       Kcareasdf                                                                                    DBAN   12345     Berlin/Detusch                      Straße des Friedenns 5                                                                        
DSMEDEUEV01234567       122345556       052020091107000300000000212345678234  81142233       basdfbasdfbbasdbf    87654321                                          12340000JJNJNNNNNN 1 N N  N 00000000000000000000  12345678901234516e869d4a4db49999941f4e78db4bfb101234567                                                                                            N                                                                                                                                                                                                       DBMEN123456789012345678901234567890123456789WN0 000000                                                                                             DBNANachname von zu                       Kcareasdf                                                                                    DBAN   12345     Berlin/Detusch                      Straße des Friedenns 5                                                                        
DSMEDEUEV01234567       122345556       052020091107000300000000212345678234  81142233       basdfbasdfbbasdbf    87654321                                          12340000JJNJNNNNNN 1 N N  N 00000000000000000000  12345678901234516e869d4a4db49999941f4e78db4bfb101234567                                                                                            N                                                                                                                                                                                                       DBMEN123456789012345678901234567890123456789WN0 000000                                                                                             DBNANachname von zu                       Kcareasdf                                                                                    DBAN   12345     Berlin/Detusch                      Straße des Friedenns 5                                                                        
DSMEDEUEV01234567       122345556       052020091107000300000000212345678234  81142233       basdfbasdfbbasdbf    87654321                                          12340000JJNJNNNNNN 1 N N  N 00000000000000000000  12345678901234516e869d4a4db49999941f4e78db4bfb101234567                                                                                            N                                                                                                                                                                                                       DBMEN123456789012345678901234567890123456789WN0 000000                                                                                             DBNANachname von zu                       Kcareasdf                                                                                    DBAN   12345     Berlin/Detusch                      Straße des Friedenns 5                                                                        
DSMEDEUEV01234567       122345556       052020091107000300000000212345678234  81142233       basdfbasdfbbasdbf    87654321                                          12340000JJNJNNNNNN 1 N N  N 00000000000000000000  12345678901234516e869d4a4db49999941f4e78db4bfb101234567                                                                                            N                                                                                                                                                                                                       DBMEN123456789012345678901234567890123456789WN0 000000                                                                                             DBNANachname von zu                       Kcareasdf                                                                                    DBAN   12345     Berlin/Detusch                      Straße des Friedenns 5                                                                        
DSMEDEUEV01234567       122345556       052020091107000300000000212345678234  81142233       basdfbasdfbbasdbf    87654321                                          12340000JJNJNNNNNN 1 N N  N 00000000000000000000  12345678901234516e869d4a4db49999941f4e78db4bfb101234567                                                                                            N                                                                                                                                                                                                       DBMEN123456789012345678901234567890123456789WN0 000000                                                                                             DBNANachname von zu                       Kcareasdf                                                                                    DBAN   12345     Berlin/Detusch                      Straße des Friedenns 5                                                                        
DSMEDEUEV01234567       122345556       052020091107000300000000212345678234  81142233       basdfbasdfbbasdbf    87654321                                          12340000JJNJNNNNNN 1 N N  N 00000000000000000000  12345678901234516e869d4a4db49999941f4e78db4bfb101234567                                                                                            N                                                                                                                                                                                                       DBMEN123456789012345678901234567890123456789WN0 000000                                                                                             DBNANachname von zu                       Kcareasdf                                                                                    DBAN   12345     Berlin/Detusch                      Straße des Friedenns 5                                                                        
DSMEDEUEV01234567       122345556       052020091107000300000000212345678234  81142233       basdfbasdfbbasdbf    87654321                                          12340000JJNJNNNNNN 1 N N  N 00000000000000000000  12345678901234516e869d4a4db49999941f4e78db4bfb101234567                                                                                            N                                                                                                                                                                                                       DBMEN123456789012345678901234567890123456789WN0 000000                                                                                             DBNANachname von zu                       Kcareasdf                                                                                    DBAN   12345     Berlin/Detusch                      Straße des Friedenns 5                                                                        
DSMEDEUEV01234567       122345556       052020091107000300000000212345678234  81142233       basdfbasdfbbasdbf    87654321                                          12340000JJNJNNNNNN 1 N N  N 00000000000000000000  12345678901234516e869d4a4db49999941f4e78db4bfb101234567                                                                                            N                                                                                                                                                                                                       DBMEN123456789012345678901234567890123456789WN0 000000                                                                                             DBNANachname von zu                       Kcareasdf                                                                                    DBAN   12345     Berlin/Detusch                      Straße des Friedenns 5                                                                        
DSMEDEUEV01234567       122345556       052020091107000300000000212345678234  81142233       basdfbasdfbbasdbf    87654321                                          12340000JJNJNNNNNN 1 N N  N 00000000000000000000  12345678901234516e869d4a4db49999941f4e78db4bfb101234567                                                                                            N                                                                                                                                                                                                       DBMEN123456789012345678901234567890123456789WN0 000000                                                                                             DBNANachname von zu                       Kcareasdf                                                                                    DBAN   12345     Berlin/Detusch                      Straße des Friedenns 5                                                                        
DSMEDEUEV01234567       122345556       052020091107000300000000212345678234  81142233       basdfbasdfbbasdbf    87654321                                          12340000JJNJNNNNNN 1 N N  N 00000000000000000000  12345678901234516e869d4a4db49999941f4e78db4bfb101234567                                                                                            N                                                                                                                                                                                                       DBMEN123456789012345678901234567890123456789WN0 000000                                                                                             DBNANachname von zu                       Kcareasdf                                                                                    DBAN   12345     Berlin/Detusch                      Straße des Friedenns 5                                                                        
DSMEDEUEV01234567       122345556       052020091107000300000000212345678234  81142233       basdfbasdfbbasdbf    87654321                                          12340000JJNJNNNNNN 1 N N  N 00000000000000000000  12345678901234516e869d4a4db49999941f4e78db4bfb101234567                                                                                            N                                                                                                                                                                                                       DBMEN123456789012345678901234567890123456789WN0 000000                                                                                             DBNANachname von zu                       Kcareasdf                                                                                    DBAN   12345     Berlin/Detusch                      Straße des Friedenns 5                                                                        
DSMEDEUEV01234567       122345556       052020091107000300000000212345678234  81142233       basdfbasdfbbasdbf    87654321                                          12340000JJNJNNNNNN 1 N N  N 00000000000000000000  12345678901234516e869d4a4db49999941f4e78db4bfb101234567                                                                                            N                                                                                                                                                                                                       DBMEN123456789012345678901234567890123456789WN0 000000                                                                                             DBNANachname von zu                       Kcareasdf                                                                                    DBAN   12345     Berlin/Detusch                      Straße des Friedenns 5                                                                        
DSMEDEUEV01234567       122345556       052020091107000300000000212345678234  81142233       basdfbasdfbbasdbf    87654321                                          12340000JJNJNNNNNN 1 N N  N 00000000000000000000  12345678901234516e869d4a4db49999941f4e78db4bfb101234567                                                                                            N                                                                                                                                                                                                       DBMEN123456789012345678901234567890123456789WN0 000000                                                                                             DBNANachname von zu                       Kcareasdf                                                                                    DBAN   12345     Berlin/Detusch                      Straße des Friedenns 5                                                                        
DSMEDEUEV01234567       122345556       052020091107000300000000212345678234  81142233       basdfbasdfbbasdbf    87654321                                          12340000JJNJNNNNNN 1 N N  N 00000000000000000000  12345678901234516e869d4a4db49999941f4e78db4bfb101234567                                                                                            N                                                                                                                                                                                                       DBMEN123456789012345678901234567890123456789WN0 000000                                                                                             DBNANachname von zu                       Kcareasdf                                                                                    DBAN   12345     Berlin/Detusch                      Straße des Friedenns 5                                                                        
DSMEDEUEV01234567       122345556       052020091107000300000000212345678234  81142233       basdfbasdfbbasdbf    87654321                                          12340000JJNJNNNNNN 1 N N  N 00000000000000000000  12345678901234516e869d4a4db49999941f4e78db4bfb101234567                                                                                            N                                                                                                                                                                                                       DBMEN123456789012345678901234567890123456789WN0 000000                                                                                             DBNANachname von zu                       Kcareasdf                                                                                    DBAN   12345     Berlin/Detusch                      Straße des Friedenns 5                                                                        
DSMEDEUEV01234567       122345556       052020091107000300000000212345678234  81142233       basdfbasdfbbasdbf    87654321                                          12340000JJNJNNNNNN 1 N N  N 00000000000000000000  12345678901234516e869d4a4db49999941f4e78db4bfb101234567                                                                                            N                                                                                                                                                                                                       DBMEN123456789012345678901234567890123456789WN0 000000                                                                                             DBNANachname von zu                       Kcareasdf                                                                                    DBAN   12345     Berlin/Detusch                      Straße des Friedenns 5                                                                        
DSMEDEUEV01234567       122345556       052020091107000300000000212345678234  81142233       basdfbasdfbbasdbf    87654321                                          12340000JJNJNNNNNN 1 N N  N 00000000000000000000  12345678901234516e869d4a4db49999941f4e78db4bfb101234567                                                                                            N                                                                                                                                                                                                       DBMEN123456789012345678901234567890123456789WN0 000000                                                                                             DBNANachname von zu                       Kcareasdf                                                                                    DBAN   12345     Berlin/Detusch                      Straße des Friedenns 5                                                                        
DSMEDEUEV01234567       122345556       052020091107000300000000212345678234  81142233       basdfbasdfbbasdbf    87654321                                          12340000JJNJNNNNNN 1 N N  N 00000000000000000000  12345678901234516e869d4a4db49999941f4e78db4bfb101234567                                                                                            N                                                                                                                                                                                                       DBMEN123456789012345678901234567890123456789WN0 000000                                                                                             DBNANachname von zu                       Kcareasdf                                                                                    DBAN   12345     Berlin/Detusch                      Straße des Friedenns 5                                                                        
DSMEDEUEV01234567       122345556       052020091107000300000000212345678234  81142233       basdfbasdfbbasdbf    87654321                                          12340000JJNJNNNNNN 1 N N  N 00000000000000000000  12345678901234516e869d4a4db49999941f4e78db4bfb101234567                                                                                            N                                                                                                                                                                                                       DBMEN123456789012345678901234567890123456789WN0 000000                                                                                             DBNANachname von zu                       Kcareasdf                                                                                    DBAN   12345     Berlin/Detusch                      Straße des Friedenns 5                                                                        
DSMEDEUEV01234567       122345556       052020091107000300000000212345678234  81142233       basdfbasdfbbasdbf    87654321                                          12340000JJNJNNNNNN 1 N N  N 00000000000000000000  12345678901234516e869d4a4db49999941f4e78db4bfb101234567                                                                                            N                                                                                                                                                                                                       DBMEN123456789012345678901234567890123456789WN0 000000                                                                                             DBNANachname von zu                       Kcareasdf                                                                                    DBAN   12345     Berlin/Detusch                      Straße des Friedenns 5                                                                        
DSMEDEUEV01234567       122345556       052020091107000300000000212345678234  81142233       basdfbasdfbbasdbf    87654321                                          12340000JJNJNNNNNN 1 N N  N 00000000000000000000  12345678901234516e869d4a4db49999941f4e78db4bfb101234567                                                                                            N                                                                                                                                                                                                       DBMEN123456789012345678901234567890123456789WN0 000000                                                                                             DBNANachname von zu                       Kcareasdf                                                                                    DBAN   12345     Berlin/Detusch                      Straße des Friedenns 5                                                                        
DSMEDEUEV01234567       122345556       052020091107000300000000212345678234  81142233       basdfbasdfbbasdbf    87654321                                          12340000JJNJNNNNNN 1 N N  N 00000000000000000000  12345678901234516e869d4a4db49999941f4e78db4bfb101234567                                                                                            N                                                                                                                                                                                                       DBMEN123456789012345678901234567890123456789WN0 000000                                                                                             DBNANachname von zu                       Kcareasdf                                                                                    DBAN   12345     Berlin/Detusch                      Straße des Friedenns 5                                                                        
DSMEDEUEV01234567       122345556       052020091107000300000000212345678234  81142233       basdfbasdfbbasdbf    87654321                                          12340000JJNJNNNNNN 1 N N  N 00000000000000000000  12345678901234516e869d4a4db49999941f4e78db4bfb101234567                                                                                            N                                                                                                                                                                                                       DBMEN123456789012345678901234567890123456789WN0 000000                                                                                             DBNANachname von zu                       Kcareasdf                                                                                    DBAN   12345     Berlin/Detusch                      Straße des Friedenns 5                                                                        
DSMEDEUEV01234567       122345556       052020091107000300000000212345678234  81142233       basdfbasdfbbasdbf    87654321                                          12340000JJNJNNNNNN 1 N N  N 00000000000000000000  12345678901234516e869d4a4db49999941f4e78db4bfb101234567                                                                                            N                                                                                                                                                                                                       DBMEN123456789012345678901234567890123456789WN0 000000                                                                                             DBNANachname von zu                       Kcareasdf                                                                                    DBAN   12345     Berlin/Detusch                      Straße des Friedenns 5                                                                        
DSMEDEUEV01234567       122345556       052020091107000300000000212345678234  81142233       basdfbasdfbbasdbf    87654321                                          12340000JJNJNNNNNN 1 N N  N 00000000000000000000  12345678901234516e869d4a4db49999941f4e78db4bfb101234567                                                                                            N                                                                                                                                                                                                       DBMEN123456789012345678901234567890123456789WN0 000000                                                                                             DBNANachname von zu                       Kcareasdf                                                                                    DBAN   12345     Berlin/Detusch                      Straße des Friedenns 5                                                                        
DSMEDEUEV01234567       122345556       052020091107000300000000212345678234  81142233       basdfbasdfbbasdbf    87654321                                          12340000JJNJNNNNNN 1 N N  N 00000000000000000000  12345678901234516e869d4a4db49999941f4e78db4bfb101234567                                                                                            N                                                                                                                                                                                                       DBMEN123456789012345678901234567890123456789WN0 000000                                                                                             DBNANachname von zu                       Kcareasdf                                                                                    DBAN   12345     Berlin/Detusch                      Straße des Friedenns 5                                                                        
DSMEDEUEV01234567       122345556       052020091107000300000000212345678234  81142233       basdfbasdfbbasdbf    87654321                                          12340000JJNJNNNNNN 1 N N  N 00000000000000000000  12345678901234516e869d4a4db49999941f4e78db4bfb101234567                                                                                            N                                                                                                                                                                                                       DBMEN123456789012345678901234567890123456789WN0 000000                                                                                             DBNANachname von zu                       Kcareasdf                                                                                    DBAN   12345     Berlin/Detusch                      Straße des Friedenns 5                                                                        
DSMEDEUEV01234567       122345556       052020091107000300000000212345678234  81142233       basdfbasdfbbasdbf    87654321                                          12340000JJNJNNNNNN 1 N N  N 00000000000000000000  12345678901234516e869d4a4db49999941f4e78db4bfb101234567                                                                                            N                                                                                                                                                                                                       DBMEN123456789012345678901234567890123456789WN0 000000                                                                                             DBNANachname von zu                       Kcareasdf                                                                                    DBAN   12345     Berlin/Detusch                      Straße des Friedenns 5                                                                        
DSMEDEUEV01234567       122345556       052020091107000300000000212345678234  81142233       basdfbasdfbbasdbf    87654321                                          12340000JJNJNNNNNN 1 N N  N 00000000000000000000  12345678901234516e869d4a4db49999941f4e78db4bfb101234567                                                                                            N                                                                                                                                                                                                       DBMEN123456789012345678901234567890123456789WN0 000000                                                                                             DBNANachname von zu                       Kcareasdf                                                                                    DBAN   12345     Berlin/Detusch                      Straße des Friedenns 5                                                                        
DSMEDEUEV01234567       122345556       052020091107000300000000212345678234  81142233       basdfbasdfbbasdbf    87654321                                          12340000JJNJNNNNNN 1 N N  N 00000000000000000000  12345678901234516e869d4a4db49999941f4e78db4bfb101234567                                                                                            N                                                                                                                                                                                                       DBMEN123456789012345678901234567890123456789WN0 000000                                                                                             DBNANachname von zu                       Kcareasdf                                                                                    DBAN   12345     Berlin/Detusch                      Straße des Friedenns 5                                                                        
DSMEDEUEV01234567       122345556       052020091107000300000000212345678234  81142233       basdfbasdfbbasdbf    87654321                                          12340000JJNJNNNNNN 1 N N  N 00000000000000000000  12345678901234516e869d4a4db49999941f4e78db4bfb101234567                                                                                            N                                                                                                                                                                                                       DBMEN123456789012345678901234567890123456789WN0 000000                                                                                             DBNANachname von zu                       Kcareasdf                                                                                    DBAN   12345     Berlin/Detusch                      Straße des Friedenns 5                                                                        
DSMEDEUEV01234567       122345556       052020091107000300000000212345678234  81142233       basdfbasdfbbasdbf    87654321                                          12340000JJNJNNNNNN 1 N N  N 00000000000000000000  12345678901234516e869d4a4db49999941f4e78db4bfb101234567                                                                                            N                                                                                                                                                                                                       DBMEN123456789012345678901234567890123456789WN0 000000                                                                                             DBNANachname von zu                       Kcareasdf                                                                                    DBAN   12345     Berlin/Detusch                      Straße des Friedenns 5                                                                        
DSMEDEUEV01234567       122345556       052020091107000300000000212345678234  81142233       basdfbasdfbbasdbf    87654321                                          12340000JJNJNNNNNN 1 N N  N 00000000000000000000  12345678901234516e869d4a4db49999941f4e78db4bfb101234567                                                                                            N                                                                                                                                                                                                       DBMEN123456789012345678901234567890123456789WN0 000000                                                                                             DBNANachname von zu                       Kcareasdf                                                                                    DBAN   12345     Berlin/Detusch                      Straße des Friedenns 5                                                                        
DSMEDEUEV01234567       122345556       052020091107000300000000212345678234  81142233       basdfbasdfbbasdbf    87654321                                          12340000JJNJNNNNNN 1 N N  N 00000000000000000000  12345678901234516e869d4a4db49999941f4e78db4bfb101234567                                                                                            N                                                                                                                                                                                                       DBMEN123456789012345678901234567890123456789WN0 000000                                                                                             DBNANachname von zu                       Kcareasdf                                                                                    DBAN   12345     Berlin/Detusch                      Straße des Friedenns 5                                                                        
DSMEDEUEV01234567       122345556       052020091107000300000000212345678234  81142233       basdfbasdfbbasdbf    87654321                                          12340000JJNJNNNNNN 1 N N  N 00000000000000000000  12345678901234516e869d4a4db49999941f4e78db4bfb101234567                                                                                            N                                                                                                                                                                                                       DBMEN123456789012345678901234567890123456789WN0 000000                                                                                             DBNANachname von zu                       Kcareasdf                                                                                    DBAN   12345     Berlin/Detusch                      Straße des Friedenns 5                                                                        
DSMEDEUEV01234567       122345556       052020091107000300000000212345678234  81142233       basdfbasdfbbasdbf    87654321                                          12340000JJNJNNNNNN 1 N N  N 00000000000000000000  12345678901234516e869d4a4db49999941f4e78db4bfb101234567                                                                                            N                                                                                                                                                                                                       DBMEN123456789012345678901234567890123456789WN0 000000                                                                                             DBNANachname von zu                       Kcareasdf                                                                                    DBAN   12345     Berlin/Detusch                      Straße des Friedenns 5                                                                        
DSMEDEUEV01234567       122345556       052020091107000300000000212345678234  81142233       basdfbasdfbbasdbf    87654321                                          12340000JJNJNNNNNN 1 N N  N 00000000000000000000  12345678901234516e869d4a4db49999941f4e78db4bfb101234567                                                                                            N                                                                                                                                                                                                       DBMEN123456789012345678901234567890123456789WN0 000000                                                                                             DBNANachname von zu                       Kcareasdf                                                                                    DBAN   12345     Berlin/Detusch                      Straße des Friedenns 5                                                                        
DSMEDEUEV01234567       122345556       052020091107000300000000212345678234  81142233       basdfbasdfbbasdbf    87654321                                          12340000JJNJNNNNNN 1 N N  N 00000000000000000000  12345678901234516e869d4a4db49999941f4e78db4bfb101234567                                                                                            N                                                                                                                                                                                                       DBMEN123456789012345678901234567890123456789WN0 000000                                                                                             DBNANachname von zu                       Kcareasdf                                                                                    DBAN   12345     Berlin/Detusch                      Straße des Friedenns 5                                                                        
DSMEDEUEV01234567       122345556       052020091107000300000000212345678234  81142233       basdfbasdfbbasdbf    87654321                                          12340000JJNJNNNNNN 1 N N  N 00000000000000000000  12345678901234516e869d4a4db49999941f4e78db4bfb101234567                                                                                            N                                                                                                                                                                                                       DBMEN123456789012345678901234567890123456789WN0 000000                                                                                             DBNANachname von zu                       Kcareasdf                                                                                    DBAN   12345     Berlin/Detusch                      Straße des Friedenns 5                                                                        
DSMEDEUEV01234567       122345556       052020091107000300000000212345678234  81142233       basdfbasdfbbasdbf    87654321                                          12340000JJNJNNNNNN 1 N N  N 00000000000000000000  12345678901234516e869d4a4db49999941f4e78db4bfb101234567                                                                                            N                                                                                                                                                                                                       DBMEN123456789012345678901234567890123456789WN0 000000                                                                                             DBNANachname von zu                       Kcareasdf                                                                                    DBAN   12345     Berlin/Detusch                      Straße des Friedenns 5                                                                        
DSMEDEUEV01234567       122345556       052020091107000300000000212345678234  81142233       basdfbasdfbbasdbf    87654321                                          12340000JJNJNNNNNN 1 N N  N 00000000000000000000  12345678901234516e869d4a4db49999941f4e78db4bfb101234567                                                                                            N                                                                                                                                                                                                       DBMEN123456789012345678901234567890123456789WN0 000000                                                                                             DBNANachname von zu                       Kcareasdf                                                                                    DBAN   12345     Berlin/Detusch                      Straße des Friedenns 5                                                                        
DSMEDEUEV01234567       122345556       052020091107000300000000212345678234  81142233       basdfbasdfbbasdbf    87654321                                          12340000JJNJNNNNNN 1 N N  N 00000000000000000000  12345678901234516e869d4a4db49999941f4e78db4bfb101234567                                                                                            N                                                                                                                                                                                                       DBMEN123456789012345678901234567890123456789WN0 000000                                                                                             DBNANachname von zu                       Kcareasdf                                                                                    DBAN   12345     Berlin/Detusch                      Straße des Friedenns 5                                                                        
DSMEDEUEV01234567       122345556       052020091107000300000000212345678234  81142233       basdfbasdfbbasdbf    87654321                                          12340000JJNJNNNNNN 1 N N  N 00000000000000000000  12345678901234516e869d4a4db49999941f4e78db4bfb101234567                                                                                            N                                                                                                                                                                                                       DBMEN123456789012345678901234567890123456789WN0 000000                                                                                             DBNANachname von zu                       Kcareasdf                                                                                    DBAN   12345     Berlin/Detusch                      Straße des Friedenns 5                                                                        
DSMEDEUEV01234567       122345556       052020091107000300000000212345678234  81142233       basdfbasdfbbasdbf    87654321                                          12340000JJNJNNNNNN 1 N N  N 00000000000000000000  12345678901234516e869d4a4db49999941f4e78db4bfb101234567                                                                                            N                                                                                                                                                                                                       DBMEN123456789012345678901234567890123456789WN0 000000                                                                                             DBNANachname von zu                       Kcareasdf                                                                                    DBAN   12345     Berlin/Detusch                      Straße des Friedenns 5                                                                        
DSMEDEUEV01234567       122345556       052020091107000300000000212345678234  81142233       basdfbasdfbbasdbf    87654321                                          12340000JJNJNNNNNN 1 N N  N 00000000000000000000  12345678901234516e869d4a4db49999941f4e78db4bfb101234567                                                                                            N                                                                                                                                                                                                       DBMEN123456789012345678901234567890123456789WN0 000000                                                                                             DBNANachname von zu                       Kcareasdf                                                                                    DBAN   12345     Berlin/Detusch                      Straße des Friedenns 5                                                                        
DSMEDEUEV01234567       122345556       052020091107000300000000212345678234  81142233       basdfbasdfbbasdbf    87654321                                          12340000JJNJNNNNNN 1 N N  N 00000000000000000000  12345678901234516e869d4a4db49999941f4e78db4bfb101234567                                                                                            N                                                                                                                                                                                                       DBMEN123456789012345678901234567890123456789WN0 000000                                                                                             DBNANachname von zu                       Kcareasdf                                                                                    DBAN   12345     Berlin/Detusch                      Straße des Friedenns 5                                                                        
DSMEDEUEV01234567       122345556       052020091107000300000000212345678234  81142233       basdfbasdfbbasdbf    87654321                                          12340000JJNJNNNNNN 1 N N  N 00000000000000000000  12345678901234516e869d4a4db49999941f4e78db4bfb101234567                                                                                            N                                                                                                                                                                                                       DBMEN123456789012345678901234567890123456789WN0 000000                                                                                             DBNANachname von zu                       Kcareasdf                                                                                    DBAN   12345     Berlin/Detusch                      Straße des Friedenns 5                                                                        
DSMEDEUEV01234567       122345556       052020091107000300000000212345678234  81142233       basdfbasdfbbasdbf    87654321                                          12340000JJNJNNNNNN 1 N N  N 00000000000000000000  12345678901234516e869d4a4db49999941f4e78db4bfb101234567                                                                                            N                                                                                                                                                                                                       DBMEN123456789012345678901234567890123456789WN0 000000                                                                                             DBNANachname von zu                       Kcareasdf                                                                                    DBAN   12345     Berlin/Detusch                      Straße des Friedenns 5                                                                        
DSMEDEUEV01234567       122345556       052020091107000300000000212345678234  81142233       basdfbasdfbbasdbf    87654321                                          12340000JJNJNNNNNN 1 N N  N 00000000000000000000  12345678901234516e869d4a4db49999941f4e78db4bfb101234567                                                                                            N                                                                                                                                                                                                       DBMEN123456789012345678901234567890123456789WN0 000000                                                                                             DBNANachname von zu                       Kcareasdf                                                                                    DBAN   12345     Berlin/Detusch                      Straße des Friedenns 5                                                                        
DSMEDEUEV01234567       122345556       052020091107000300000000212345678234  81142233       basdfbasdfbbasdbf    87654321                                          12340000JJNJNNNNNN 1 N N  N 00000000000000000000  12345678901234516e869d4a4db49999941f4e78db4bfb101234567                                                                                            N                                                                                                                                                                                                       DBMEN123456789012345678901234567890123456789WN0 000000                                                                                             DBNANachname von zu                       Kcareasdf                                                                                    DBAN   12345     Berlin/Detusch                      Straße des Friedenns 5                                                                        
DSMEDEUEV01234567       122345556       052020091107000300000000212345678234  81142233       basdfbasdfbbasdbf    87654321                                          12340000JJNJNNNNNN 1 N N  N 00000000000000000000  12345678901234516e869d4a4db49999941f4e78db4bfb101234567                                                                                            N                                                                                                                                                                                                       DBMEN123456789012345678901234567890123456789WN0 000000                                                                                             DBNANachname von zu                       Kcareasdf                                                                                    DBAN   12345     Berlin/Detusch                      Straße des Friedenns 5                                                                        
DSMEDEUEV01234567       122345556       052020091107000300000000212345678234  81142233       basdfbasdfbbasdbf    87654321                                          12340000JJNJNNNNNN 1 N N  N 00000000000000000000  12345678901234516e869d4a4db49999941f4e78db4bfb101234567                                                                                            N                                                                                                                                                                                                       DBMEN123456789012345678901234567890123456789WN0 000000                                                                                             DBNANachname von zu                       Kcareasdf                                                                                    DBAN   12345     Berlin/Detusch                      Straße des Friedenns 5                                                                        
DSMEDEUEV01234567       122345556       052020091107000300000000212345678234  81142233       basdfbasdfbbasdbf    87654321                                          12340000JJNJNNNNNN 1 N N  N 00000000000000000000  12345678901234516e869d4a4db49999941f4e78db4bfb101234567                                                                                            N                                                                                                                                                                                                       DBMEN123456789012345678901234567890123456789WN0 000000                                                                                             DBNANachname von zu                       Kcareasdf                                                                                    DBAN   12345     Berlin/Detusch                      Straße des Friedenns 5                                                                        
DSMEDEUEV01234567       122345556       052020091107000300000000212345678234  81142233       basdfbasdfbbasdbf    87654321                                          12340000JJNJNNNNNN 1 N N  N 00000000000000000000  12345678901234516e869d4a4db49999941f4e78db4bfb101234567                                                                                            N                                                                                                                                                                                                       DBMEN123456789012345678901234567890123456789WN0 000000                                                                                             DBNANachname von zu                       Kcareasdf                                                                                    DBAN   12345     Berlin/Detusch                      Straße des Friedenns 5                                                                        
DSMEDEUEV01234567       122345556       052020091107000300000000212345678234  81142233       basdfbasdfbbasdbf    87654321                                          12340000JJNJNNNNNN 1 N N  N 00000000000000000000  12345678901234516e869d4a4db49999941f4e78db4bfb101234567                                                                                            N                                                                                                                                                                                                       DBMEN123456789012345678901234567890123456789WN0 000000                                                                                             DBNANachname von zu                       Kcareasdf                                                                                    DBAN   12345     Berlin/Detusch                      Straße des Friedenns 5                                                                        
DSMEDEUEV01234567       122345556       052020091107000300000000212345678234  81142233       basdfbasdfbbasdbf    87654321                                          12340000JJNJNNNNNN 1 N N  N 00000000000000000000  12345678901234516e869d4a4db49999941f4e78db4bfb101234567                                                                                            N                                                                                                                                                                                                       DBMEN123456789012345678901234567890123456789WN0 000000                                                                                             DBNANachname von zu                       Kcareasdf                                                                                    DBAN   12345     Berlin/Detusch                      Straße des Friedenns 5                                                                        
DSMEDEUEV01234567       122345556       052020091107000300000000212345678234  81142233       basdfbasdfbbasdbf    87654321                                          12340000JJNJNNNNNN 1 N N  N 00000000000000000000  12345678901234516e869d4a4db49999941f4e78db4bfb101234567                                                                                            N                                                                                                                                                                                                       DBMEN123456789012345678901234567890123456789WN0 000000                                                                                             DBNANachname von zu                       Kcareasdf                                                                                    DBAN   12345     Berlin/Detusch                      Straße des Friedenns 5                                                                        
DSMEDEUEV01234567       122345556       052020091107000300000000212345678234  81142233       basdfbasdfbbasdbf    87654321                                          12340000JJNJNNNNNN 1 N N  N 00000000000000000000  12345678901234516e869d4a4db49999941f4e78db4bfb101234567                                                                                            N                                                                                                                                                                                                       DBMEN123456789012345678901234567890123456789WN0 000000                                                                                             DBNANachname von zu                       Kcareasdf                                                                                    DBAN   12345     Berlin/Detusch                      Straße des Friedenns 5                                                                        
DSMEDEUEV01234567       122345556       052020091107000300000000212345678234  81142233       basdfbasdfbbasdbf    87654321                                          12340000JJNJNNNNNN 1 N N  N 00000000000000000000  12345678901234516e869d4a4db49999941f4e78db4bfb101234567                                                                                            N                                                                                                                                                                                                       DBMEN123456789012345678901234567890123456789WN0 000000                                                                                             DBNANachname von zu                       Kcareasdf                                                                                    DBAN   12345     Berlin/Detusch                      Straße des Friedenns 5                                                                        
DSMEDEUEV01234567       122345556       052020091107000300000000212345678234  81142233       basdfbasdfbbasdbf    87654321                                          12340000JJNJNNNNNN 1 N N  N 00000000000000000000  12345678901234516e869d4a4db49999941f4e78db4bfb101234567                                                                                            N                                                                                                                                                                                                       DBMEN123456789012345678901234567890123456789WN0 000000                                                                                             DBNANachname von zu                       Kcareasdf                                                                                    DBAN   12345     Berlin/Detusch                      Straße des Friedenns 5                                                                        
DSMEDEUEV01234567       122345556       052020091107000300000000212345678234  81142233       basdfbasdfbbasdbf    87654321                                          12340000JJNJNNNNNN 1 N N  N 00000000000000000000  12345678901234516e869d4a4db49999941f4e78db4bfb101234567                                                                                            N                                                                                                                                                                                                       DBMEN123456789012345678901234567890123456789WN0 000000                                                                                             DBNANachname von zu                       Kcareasdf                                                                                    DBAN   12345     Berlin/Detusch                      Straße des Friedenns 5                                                                        
DSMEDEUEV01234567       122345556       052020091107000300000000212345678234  81142233       basdfbasdfbbasdbf    87654321                                          12340000JJNJNNNNNN 1 N N  N 00000000000000000000  12345678901234516e869d4a4db49999941f4e78db4bfb101234567                                                                                            N                                                                                                                                                                                                       DBMEN123456789012345678901234567890123456789WN0 000000                                                                                             DBNANachname von zu                       Kcareasdf                                                                                    DBAN   12345     Berlin/Detusch                      Straße des Friedenns 5                                                                        
DSMEDEUEV01234567       122345556       052020091107000300000000212345678234  81142233       basdfbasdfbbasdbf    87654321                                          12340000JJNJNNNNNN 1 N N  N 00000000000000000000  12345678901234516e869d4a4db49999941f4e78db4bfb101234567                                                                                            N                                                                                                                                                                                                       DBMEN123456789012345678901234567890123456789WN0 000000                                                                                             DBNANachname von zu                       Kcareasdf                                                                                    DBAN   12345     Berlin/Detusch                      Straße des Friedenns 5                                                                        
DSMEDEUEV01234567       122345556       052020091107000300000000212345678234  81142233       basdfbasdfbbasdbf    87654321                                          12340000JJNJNNNNNN 1 N N  N 00000000000000000000  12345678901234516e869d4a4db49999941f4e78db4bfb101234567                                                                                            N                                                                                                                                                                                                       DBMEN123456789012345678901234567890123456789WN0 000000                                                                                             DBNANachname von zu                       Kcareasdf                                                                                    DBAN   12345     Berlin/Detusch                      Straße des Friedenns 5                                                                        
DSMEDEUEV01234567       122345556       052020091107000300000000212345678234  81142233       basdfbasdfbbasdbf    87654321                                          12340000JJNJNNNNNN 1 N N  N 00000000000000000000  12345678901234516e869d4a4db49999941f4e78db4bfb101234567                                                                                            N                                                                                                                                                                                                       DBMEN123456789012345678901234567890123456789WN0 000000                                                                                             DBNANachname von zu                       Kcareasdf                                                                                    DBAN   12345     Berlin/Detusch                      Straße des Friedenns 5                                                                        
DSMEDEUEV01234567       122345556       052020091107000300000000212345678234  81142233       basdfbasdfbbasdbf    87654321                                          12340000JJNJNNNNNN 1 N N  N 00000000000000000000  12345678901234516e869d4a4db49999941f4e78db4bfb101234567                                                                                            N                                                                                                                                                                                                       DBMEN123456789012345678901234567890123456789WN0 000000                                                                                             DBNANachname von zu                       Kcareasdf                                                                                    DBAN   12345     Berlin/Detusch                      Straße des Friedenns 5                                                                        
DSMEDEUEV01234567       122345556       052020091107000300000000212345678234  81142233       basdfbasdfbbasdbf    87654321                                          12340000JJNJNNNNNN 1 N N  N 00000000000000000000  12345678901234516e869d4a4db49999941f4e78db4bfb101234567                                                                                            N                                                                                                                                                                                                       DBMEN123456789012345678901234567890123456789WN0 000000                                                                                             DBNANachname von zu                       Kcareasdf                                                                                    DBAN   12345     Berlin/Detusch                      Straße des Friedenns 5                                                                        
DSMEDEUEV01234567       122345556       052020091107000300000000212345678234  81142233       basdfbasdfbbasdbf    87654321                                          12340000JJNJNNNNNN 1 N N  N 00000000000000000000  12345678901234516e869d4a4db49999941f4e78db4bfb101234567                                                                                            N                                                                                                                                                                                                       DBMEN123456789012345678901234567890123456789WN0 000000                                                                                             DBNANachname von zu                       Kcareasdf                                                                                    DBAN   12345     Berlin/Detusch                      Straße des Friedenns 5                                                                        
DSMEDEUEV01234567       122345556       052020091107000300000000212345678234  81142233       basdfbasdfbbasdbf    87654321                                          12340000JJNJNNNNNN 1 N N  N 00000000000000000000  12345678901234516e869d4a4db49999941f4e78db4bfb101234567                                                                                            N                                                                                                                                                                                                       DBMEN123456789012345678901234567890123456789WN0 000000                                                                                             DBNANachname von zu                       Kcareasdf                                                                                    DBAN   12345     Berlin/Detusch                      Straße des Friedenns 5                                                                        
DSMEDEUEV01234567       122345556       052020091107000300000000212345678234  81142233       basdfbasdfbbasdbf    87654321                                          12340000JJNJNNNNNN 1 N N  N 00000000000000000000  12345678901234516e869d4a4db49999941f4e78db4bfb101234567                                                                                            N                                                                                                                                                                                                       DBMEN123456789012345678901234567890123456789WN0 000000                                                                                             DBNANachname von zu                       Kcareasdf                                                                                    DBAN   12345     Berlin/Detusch                      Straße des Friedenns 5                                                                        
DSMEDEUEV01234567       122345556       052020091107000300000000212345678234  81142233       basdfbasdfbbasdbf    87654321                                          12340000JJNJNNNNNN 1 N N  N 00000000000000000000  12345678901234516e869d4a4db49999941f4e78db4bfb101234567                                                                                            N                                                                                                                                                                                                       DBMEN123456789012345678901234567890123456789WN0 000000                                                                                             DBNANachname von zu                       Kcareasdf                                                                                    DBAN   12345     Berlin/Detusch                      Straße des Friedenns 5                                                                        
DSMEDEUEV01234567       122345556       052020091107000300000000212345678234  81142233       basdfbasdfbbasdbf    87654321                                          12340000JJNJNNNNNN 1 N N  N 00000000000000000000  12345678901234516e869d4a4db49999941f4e78db4bfb101234567                                                                                            N                                                                                                                                                                                                       DBMEN123456789012345678901234567890123456789WN0 000000                                                                                             DBNANachname von zu                       Kcareasdf                                                                                    DBAN   12345     Berlin/Detusch                      Straße des Friedenns 5                                                                        
DSMEDEUEV01234567       122345556       052020091107000300000000212345678234  81142233       basdfbasdfbbasdbf    87654321                                          12340000JJNJNNNNNN 1 N N  N 00000000000000000000  12345678901234516e869d4a4db49999941f4e78db4bfb101234567                                                                                            N                                                                                                                                                                                                       DBMEN123456789012345678901234567890123456789WN0 000000                                                                                             DBNANachname von zu                       Kcareasdf                                                                                    DBAN   12345     Berlin/Detusch                      Straße des Friedenns 5                                                                        
DSMEDEUEV01234567       122345556       052020091107000300000000212345678234  81142233       basdfbasdfbbasdbf    87654321                                          12340000JJNJNNNNNN 1 N N  N 00000000000000000000  12345678901234516e869d4a4db49999941f4e78db4bfb101234567                                                                                            N                                                                                                                                                                                                       DBMEN123456789012345678901234567890123456789WN0 000000                                                                                             DBNANachname von zu                       Kcareasdf                                                                                    DBAN   12345     Berlin/Detusch                      Straße des Friedenns 5                                                                        
DSMEDEUEV01234567       122345556       052020091107000300000000212345678234  81142233       basdfbasdfbbasdbf    87654321                                          12340000JJNJNNNNNN 1 N N  N 00000000000000000000  12345678901234516e869d4a4db49999941f4e78db4bfb101234567                                                                                            N                                                                                                                                                                                                       DBMEN123456789012345678901234567890123456789WN0 000000                                                                                             DBNANachname von zu                       Kcareasdf                                                                                    DBAN   12345     Berlin/Detusch                      Straße des Friedenns 5                                                                        
DSMEDEUEV01234567       122345556       052020091107000300000000212345678234  81142233       basdfbasdfbbasdbf    87654321                                          12340000JJNJNNNNNN 1 N N  N 00000000000000000000  12345678901234516e869d4a4db49999941f4e78db4bfb101234567                                                                                            N                                                                                                                                                                                                       DBMEN123456789012345678901234567890123456789WN0 000000                                                                                             DBNANachname von zu                       Kcareasdf                                                                                    DBAN   12345     Berlin/Detusch                      Straße des Friedenns 5                                                                        
DSMEDEUEV01234567       122345556       052020091107000300000000212345678234  81142233       basdfbasdfbbasdbf    87654321                                          12340000JJNJNNNNNN 1 N N  N 00000000000000000000  12345678901234516e869d4a4db49999941f4e78db4bfb101234567                                                                                            N                                                                                                                                                                                                       DBMEN123456789012345678901234567890123456789WN0 000000                                                                                             DBNANachname von zu                       Kcareasdf                                                                                    DBAN   12345     Berlin/Detusch                      Straße des Friedenns 5                                                                        
DSMEDEUEV01234567       122345556       052020091107000300000000212345678234  81142233       basdfbasdfbbasdbf    87654321                                          12340000JJNJNNNNNN 1 N N  N 00000000000000000000  12345678901234516e869d4a4db49999941f4e78db4bfb101234567                                                                                            N                                                                                                                                                                                                       DBMEN123456789012345678901234567890123456789WN0 000000                                                                                             DBNANachname von zu                       Kcareasdf                                                                                    DBAN   12345     Berlin/Detusch                      Straße des Friedenns 5                                                                        
DSMEDEUEV01234567       122345556       052020091107000300000000212345678234  81142233       basdfbasdfbbasdbf    87654321                                          12340000JJNJNNNNNN 1 N N  N 00000000000000000000  12345678901234516e869d4a4db49999941f4e78db4bfb101234567                                                                                            N                                                                                                                                                                                                       DBMEN123456789012345678901234567890123456789WN0 000000                                                                                             DBNANachname von zu                       Kcareasdf                                                                                    DBAN   12345     Berlin/Detusch                      Straße des Friedenns 5                                                                        
DSMEDEUEV01234567       122345556       052020091107000300000000212345678234  81142233       basdfbasdfbbasdbf    87654321                                          12340000JJNJNNNNNN 1 N N  N 00000000000000000000  12345678901234516e869d4a4db49999941f4e78db4bfb101234567                                                                                            N                                                                                                                                                                                                       DBMEN123456789012345678901234567890123456789WN0 000000                                                                                             DBNANachname von zu                       Kcareasdf                                                                                    DBAN   12345     Berlin/Detusch                      Straße des Friedenns 5                                                                        
DSMEDEUEV01234567       122345556       052020091107000300000000212345678234  81142233       basdfbasdfbbasdbf    87654321                                          12340000JJNJNNNNNN 1 N N  N 00000000000000000000  12345678901234516e869d4a4db49999941f4e78db4bfb101234567                                                                                            N                                                                                                                                                                                                       DBMEN123456789012345678901234567890123456789WN0 000000                                                                                             DBNANachname von zu                       Kcareasdf                                                                                    DBAN   12345     Berlin/Detusch                      Straße des Friedenns 5                                                                        
DSMEDEUEV01234567       122345556       052020091107000300000000212345678234  81142233       basdfbasdfbbasdbf    87654321                                          12340000JJNJNNNNNN 1 N N  N 00000000000000000000  12345678901234516e869d4a4db49999941f4e78db4bfb101234567                                                                                            N                                                                                                                                                                                                       DBMEN123456789012345678901234567890123456789WN0 000000                                                                                             DBNANachname von zu                       Kcareasdf                                                                                    DBAN   12345     Berlin/Detusch                      Straße des Friedenns 5                                                                        
DSMEDEUEV01234567       122345556       052020091107000300000000212345678234  81142233       basdfbasdfbbasdbf    87654321                                          12340000JJNJNNNNNN 1 N N  N 00000000000000000000  12345678901234516e869d4a4db49999941f4e78db4bfb101234567                                                                                            N                                                                                                                                                                                                       DBMEN123456789012345678901234567890123456789WN0 000000                                                                                             DBNANachname von zu                       Kcareasdf                                                                                    DBAN   12345     Berlin/Detusch                      Straße des Friedenns 5                                                                        
DSMEDEUEV01234567       122345556       052020091107000300000000212345678234  81142233       basdfbasdfbbasdbf    87654321                                          12340000JJNJNNNNNN 1 N N  N 00000000000000000000  12345678901234516e869d4a4db49999941f4e78db4bfb101234567                                                                                            N                                                                                                                                                                                                       DBMEN123456789012345678901234567890123456789WN0 000000                                                                                             DBNANachname von zu                       Kcareasdf                                                                                    DBAN   12345     Berlin/Detusch                      Straße des Friedenns 5                                                                        
DSMEDEUEV01234567       122345556       052020091107000300000000212345678234  81142233       basdfbasdfbbasdbf    87654321                                          12340000JJNJNNNNNN 1 N N  N 00000000000000000000  12345678901234516e869d4a4db49999941f4e78db4bfb101234567                                                                                            N                                                                                                                                                                                                       DBMEN123456789012345678901234567890123456789WN0 000000                                                                                             DBNANachname von zu                       Kcareasdf                                                                                    DBAN   12345     Berlin/Detusch                      Straße des Friedenns 5                                                                        
DSMEDEUEV01234567       122345556       052020091107000300000000212345678234  81142233       basdfbasdfbbasdbf    87654321                                          12340000JJNJNNNNNN 1 N N  N 00000000000000000000  12345678901234516e869d4a4db49999941f4e78db4bfb101234567                                                                                            N                                                                                                                                                                                                       DBMEN123456789012345678901234567890123456789WN0 000000                                                                                             DBNANachname von zu                       Kcareasdf                                                                                    DBAN   12345     Berlin/Detusch                      Straße des Friedenns 5                                                                        
DSMEDEUEV01234567       122345556       052020091107000300000000212345678234  81142233       basdfbasdfbbasdbf    87654321                                          12340000JJNJNNNNNN 1 N N  N 00000000000000000000  12345678901234516e869d4a4db49999941f4e78db4bfb101234567                                                                                            N                                                                                                                                                                                                       DBMEN123456789012345678901234567890123456789WN0 000000                                                                                             DBNANachname von zu                       Kcareasdf                                                                                    DBAN   12345     Berlin/Detusch                      Straße des Friedenns 5                                                                        
DSMEDEUEV01234567       122345556       052020091107000300000000212345678234  81142233       basdfbasdfbbasdbf    87654321                                          12340000JJNJNNNNNN 1 N N  N 00000000000000000000  12345678901234516e869d4a4db49999941f4e78db4bfb101234567                                                                                            N                                                                                                                                                                                                       DBMEN123456789012345678901234567890123456789WN0 000000                                                                                             DBNANachname von zu                       Kcareasdf                                                                                    DBAN   12345     Berlin/Detusch                      Straße des Friedenns 5                                                                        
DSMEDEUEV01234567       122345556       052020091107000300000000212345678234  81142233       basdfbasdfbbasdbf    87654321                                          12340000JJNJNNNNNN 1 N N  N 00000000000000000000  12345678901234516e869d4a4db49999941f4e78db4bfb101234567                                                                                            N                                                                                                                                                                                                       DBMEN123456789012345678901234567890123456789WN0 000000                                                                                             DBNANachname von zu                       Kcareasdf                                                                                    DBAN   12345     Berlin/Detusch                      Straße des Friedenns 5                                                                        
DSMEDEUEV01234567       122345556       052020091107000300000000212345678234  81142233       basdfbasdfbbasdbf    87654321                                          12340000JJNJNNNNNN 1 N N  N 00000000000000000000  12345678901234516e869d4a4db49999941f4e78db4bfb101234567                                                                                            N                                                                                                                                                                                                       DBMEN123456789012345678901234567890123456789WN0 000000                                                                                             DBNANachname von zu                       Kcareasdf                                                                                    DBAN   12345     Berlin/Detusch                      Straße des Friedenns 5                                                                        
DSMEDEUEV01234567       122345556       052020091107000300000000212345678234  81142233       basdfbasdfbbasdbf    87654321                                          12340000JJNJNNNNNN 1 N N  N 00000000000000000000  12345678901234516e869d4a4db49999941f4e78db4bfb101234567                                                                                            N                                                                                                                                                                                                       DBMEN123456789012345678901234567890123456789WN0 000000                                                                                             DBNANachname von zu                       Kcareasdf                                                                                    DBAN   12345     Berlin/Detusch                      Straße des Friedenns 5                                                                        
DSMEDEUEV01234567       122345556       052020091107000300000000212345678234  81142233       basdfbasdfbbasdbf    87654321                                          12340000JJNJNNNNNN 1 N N  N 00000000000000000000  12345678901234516e869d4a4db49999941f4e78db4bfb101234567                                                                                            N                                                                                                                                                                                                       DBMEN123456789012345678901234567890123456789WN0 000000                                                                                             DBNANachname von zu                       Kcareasdf                                                                                    DBAN   12345     Berlin/Detusch                      Straße des Friedenns 5                                                                        
DSMEDEUEV01234567       122345556       052020091107000300000000212345678234  81142233       basdfbasdfbbasdbf    87654321                                          12340000JJNJNNNNNN 1 N N  N 00000000000000000000  12345678901234516e869d4a4db49999941f4e78db4bfb101234567                                                                                            N                                                                                                                                                                                                       DBMEN123456789012345678901234567890123456789WN0 000000                                                                                             DBNANachname von zu                       Kcareasdf                                                                                    DBAN   12345     Berlin/Detusch                      Straße des Friedenns 5                                                                        
DSMEDEUEV01234567       122345556       052020091107000300000000212345678234  81142233       basdfbasdfbbasdbf    87654321                                          12340000JJNJNNNNNN 1 N N  N 00000000000000000000  12345678901234516e869d4a4db49999941f4e78db4bfb101234567                                                                                            N                                                                                                                                                                                                       DBMEN123456789012345678901234567890123456789WN0 000000                                                                                             DBNANachname von zu                       Kcareasdf                                                                                    DBAN   12345     Berlin/Detusch                      Straße des Friedenns 5                                                                        
DSMEDEUEV01234567       122345556       052020091107000300000000212345678234  81142233       basdfbasdfbbasdbf    87654321                                          12340000JJNJNNNNNN 1 N N  N 00000000000000000000  12345678901234516e869d4a4db49999941f4e78db4bfb101234567                                                                                            N                                                                                                                                                                                                       DBMEN123456789012345678901234567890123456789WN0 000000                                                                                             DBNANachname von zu                       Kcareasdf                                                                                    DBAN   12345     Berlin/Detusch                      Straße des Friedenns 5                                                                        
DSMEDEUEV01234567       122345556       052020091107000300000000212345678234  81142233       basdfbasdfbbasdbf    87654321                                          12340000JJNJNNNNNN 1 N N  N 00000000000000000000  12345678901234516e869d4a4db49999941f4e78db4bfb101234567                                                                                            N                                                                                                                                                                                                       DBMEN123456789012345678901234567890123456789WN0 000000                                                                                             DBNANachname von zu                       Kcareasdf                                                                                    DBAN   12345     Berlin/Detusch                      Straße des Friedenns 5                                                                        
DSMEDEUEV01234567       122345556       052020091107000300000000212345678234  81142233       basdfbasdfbbasdbf    87654321                                          12340000JJNJNNNNNN 1 N N  N 00000000000000000000  12345678901234516e869d4a4db49999941f4e78db4bfb101234567                                                                                            N                                                                                                                                                                                                       DBMEN123456789012345678901234567890123456789WN0 000000                                                                                             DBNANachname von zu                       Kcareasdf                                                                                    DBAN   12345     Berlin/Detusch                      Straße des Friedenns 5                                                                        
DSMEDEUEV01234567       122345556       052020091107000300000000212345678234  81142233       basdfbasdfbbasdbf    87654321                                          12340000JJNJNNNNNN 1 N N  N 00000000000000000000  12345678901234516e869d4a4db49999941f4e78db4bfb101234567                                                                                            N                                                                                                                                                                                                       DBMEN123456789012345678901234567890123456789WN0 000000                                                                                             DBNANachname von zu                       Kcareasdf                                                                                    DBAN   12345     Berlin/Detusch                      Straße des Friedenns 5                                                                        
DSMEDEUEV01234567       122345556       052020091107000300000000212345678234  81142233       basdfbasdfbbasdbf    87654321                                          12340000JJNJNNNNNN 1 N N  N 00000000000000000000  12345678901234516e869d4a4db49999941f4e78db4bfb101234567                                                                                            N                                                                                                                                                                                                       DBMEN123456789012345678901234567890123456789WN0 000000                                                                                             DBNANachname von zu                       Kcareasdf                                                                                    DBAN   12345     Berlin/Detusch                      Straße des Friedenns 5                                                                        
NCSZAGDEU01234567       122345556       202009110065420000000201